:1008F90011083F065B4F666D7D077F6F777C395E18
:0309090079710001
:0B090D00EF1FAC0670011E4C70F622BC
:10088C00E4FDEDB40800504D90089BF82828730245
:10089C0008B30208B70208BB0208BF0208C302086B
:1008AC00CB0208D30208DBD2A4800ED2A48012D2D1
:1008BC00A48016D2A4801AC2A4D2A3D2A28016C23B
:1008CC00A4D2A3C2A2800EC2A4C2A3D2A28006C28A
:1008DC00A4C2A3C2A274082DF8E6F5807F107E276F
:0C08EC0012090DE4F5800DED6408709613
:0108F80022DD
:0509180012088C80FBB9
:03000000020800F3
:0C080000787FE4F6D8FD758118020847E7
:10080C00020918E493A3F8E493A34003F68001F2E1
:10081C0008DFF48029E493A3F85407240CC8C333ED
:10082C00C4540F4420C8834004F456800146F6DFBC
:10083C00E4800B01020408102040809008F9E47E4B
:10084C00019360BCA3FF543F30E509541FFEE493B1
:10085C00A360010ECF54C025E060A840B8E493A378
:10086C00FAE493A3F8E493A3C8C582C8CAC583CAA3
:10087C00F0A3C8C582C8CAC583CADFE9DEE780BE5B
:01090C0000EA
:00000001FF
