:0A09060008080102040810204080D8
:0408F7007F017E00FF
:0B08FB00EF1FAC0670011E4C70F622CF
:1008B500D3EF9400EE940040187D6E7C00C3EC9459
:1008C500005007ED1D70F61C80F3EF1F70E21E80CF
:0108D500DF43
:0108D60022FF
:02088C00AD07B6
:10088E00E4FBEDC4131313540124FF92B4ED25E0E1
:10089E00FDC2B61208F7D2B61208F70BBB08E3C2B8
:0608AE00B51208F7D2B5F7
:0108B4002221
:1008D700E4F580E4FAE4FF12088C74082AF8E6FFCE
:1008E70012088C7F887E131208B50ABA08E780E3DE
:03000000020800F3
:0C080000787FE4F6D8FD75810F020847F0
:10080C000208D7E493A3F8E493A34003F68001F223
:10081C0008DFF48029E493A3F85407240CC8C333ED
:10082C00C4540F4420C8834004F456800146F6DFBC
:10083C00E4800B0102040810204080900906E47E3D
:10084C00019360BCA3FF543F30E509541FFEE493B1
:10085C00A360010ECF54C025E060A840B8E493A378
:10086C00FAE493A3F8E493A3C8C582C8CAC583CAA3
:10087C00F0A3C8C582C8CAC583CADFE9DEE780BE5B
:0109100000E6
:00000001FF
