:1008D9000810007C8282827C000008087FBFDFEF5D
:0408E900F7FBFDFE1E
:0408EE007F017E0008
:0B08F200EF1FAC0670011E4C70F622D8
:02088C00AD07B6
:10088E00E4FBEDC4131313540124FF92B4ED25E0E1
:10089E00FDC2B61208EED2B61208EE0BBB08E3C2CA
:0608AE00B51208EED2B500
:0108B4002221
:1008B500E4FA74082AF8E6F58074102AF8E6FF12BF
:1008C500088C7F647E001208F2E4FF12088C0ABAD5
:0408D50008E080DCDB
:03000000020800F3
:0C080000787FE4F6D8FD758117020847E8
:10080C000208B5E493A3F8E493A34003F68001F245
:10081C0008DFF48029E493A3F85407240CC8C333ED
:10082C00C4540F4420C8834004F456800146F6DFBC
:10083C00E4800B01020408102040809008D9E47E6B
:10084C00019360BCA3FF543F30E509541FFEE493B1
:10085C00A360010ECF54C025E060A840B8E493A378
:10086C00FAE493A3F8E493A3C8C582C8CAC583CAA3
:10087C00F0A3C8C582C8CAC583CADFE9DEE780BE5B
:0108ED00000A
:00000001FF
