:1009E10011093F065B4F666D7D077F6F777C395E2E
:0609F1007971000108000D
:040A08007FE87E0302
:0B0A0C00EF1FAC0670011E4C70F622BC
:10080000E4F51A7590F7E59064F76030120A08AFC6
:1008100090EF2449601124E0601224F060132470EA
:100820007012751A01800D751A058008751A0980F5
:1008300003751A0DE590B4F7FBAF1A227590FBE52E
:100840009064FB6030120A08AF90EF2445601124D9
:10085000E0601224F0601324707012751A02800D8B
:10086000751A068008751A0A8003751A0EE590B489
:10087000FBFBAF1A227590FDE59064FD6030120A13
:1008800008AF90EF2443601124E0601224F060135D
:1008900024707012751A03800D751A078008751A76
:1008A0000B8003751A0FE590B4FDFBAF1A2275900B
:1008B000FEE59064FE6030120A08AF90EF244260BB
:1008C0001124E0601224F0601324707012751A0471
:1008D000800D751A088008751A0C8003751A10E5CA
:0908E00090B4FEFBAF1A22AF1A1E
:0108E90022EC
:1009760075900FE590640F605C120A08E590640FAD
:10098600605675900FAF90EF24F5601024FE60114D
:1009960014601324077012750801800D7508028013
:1009A6000875080380037508047590F0AF90EF246E
:1009B60050600C24E0600C24F0600C2470800E74EF
:1009C60004800674088002740C2508F508E5906416
:0A09D600F0600580F8E4F508AF08B2
:0109E00022F4
:1009F800E4FF120976EF60FA2408F8E6F58080F241
:030000000208EA09
:0C08EA00787FE4F6D8FD75811A02093110
:1008F6000209F8E493A3F8E493A34003F68001F217
:1009060008DFF48029E493A3F85407240CC8C33302
:10091600C4540F4420C8834004F456800146F6DFD1
:10092600E4800B01020408102040809009E1E47E77
:10093600019360BCA3FF543F30E509541FFEE493C6
:10094600A360010ECF54C025E060A840B8E493A38D
:10095600FAE493A3F8E493A3C8C582C8CAC583CAB8
:10096600F0A3C8C582C8CAC583CADFE9DEE780BE70
:0109F70000FF
:00000001FF
