:0408C8000208000022
:1008B300438901758CAA758A18D2A9D2AFD28C222A
:03000B0002088C5C
:04088C00C0E0C0D038
:10089000758CFC758A180509E50970020508B4E82D
:0E08A0000DE508B40308750800750900B2A044
:0508AE00D0D0D0E032C3
:0508C3001208B380FEE5
:03000000020800F3
:0C080000787FE4F6D8FD758109020847F6
:10080C000208C3E493A3F8E493A34003F68001F237
:10081C0008DFF48029E493A3F85407240CC8C333ED
:10082C00C4540F4420C8834004F456800146F6DFBC
:10083C00E4800B01020408102040809008C8E47E7C
:10084C00019360BCA3FF543F30E509541FFEE493B1
:10085C00A360010ECF54C025E060A840B8E493A378
:10086C00FAE493A3F8E493A3C8C582C8CAC583CAA3
:10087C00F0A3C8C582C8CAC583CADFE9DEE780BE5B
:0108CC00002B
:00000001FF
